{
  "contractName": "Faucet",
  "abi": [
    {
      "inputs": [],
      "name": "numberOfFunders",
      "outputs": [
        {
          "internalType": "uint256",
          "name": "",
          "type": "uint256"
        }
      ],
      "stateMutability": "view",
      "type": "function",
      "constant": true
    },
    {
      "stateMutability": "payable",
      "type": "receive",
      "payable": true
    },
    {
      "inputs": [],
      "name": "addFunds",
      "outputs": [],
      "stateMutability": "payable",
      "type": "function",
      "payable": true
    },
    {
      "inputs": [],
      "name": "getAllFunders",
      "outputs": [
        {
          "internalType": "address[]",
          "name": "",
          "type": "address[]"
        }
      ],
      "stateMutability": "view",
      "type": "function",
      "constant": true
    },
    {
      "inputs": [
        {
          "internalType": "uint8",
          "name": "index",
          "type": "uint8"
        }
      ],
      "name": "getFunderAtIndex",
      "outputs": [
        {
          "internalType": "address",
          "name": "",
          "type": "address"
        }
      ],
      "stateMutability": "view",
      "type": "function",
      "constant": true
    }
  ],
  "bytecode": "0x608060405234801561001057600080fd5b50610581806100206000396000f3fe6080604052600436106100435760003560e01c80630a93cf331461004f5780636fbbb55d1461008c578063a26759cb146100b7578063dc79a7fc146100c15761004a565b3661004a57005b600080fd5b34801561005b57600080fd5b50610076600480360381019061007191906102d8565b6100ec565b6040516100839190610346565b60405180910390f35b34801561009857600080fd5b506100a161012c565b6040516100ae919061041f565b60405180910390f35b6100bf610225565b005b3480156100cd57600080fd5b506100d6610294565b6040516100e3919061045a565b60405180910390f35b6000600160008360ff16815260200190815260200160002060009054906101000a900473ffffffffffffffffffffffffffffffffffffffff169050919050565b60606000805467ffffffffffffffff81111561014b5761014a610475565b5b6040519080825280602002602001820160405280156101795781602001602082028036833780820191505090505b50905060005b60005481101561021d576001600082815260200190815260200160002060009054906101000a900473ffffffffffffffffffffffffffffffffffffffff168282815181106101d0576101cf6104a4565b5b602002602001019073ffffffffffffffffffffffffffffffffffffffff16908173ffffffffffffffffffffffffffffffffffffffff1681525050808061021590610502565b91505061017f565b508091505090565b600080600081548092919061023990610502565b919050559050336001600083815260200190815260200160002060006101000a81548173ffffffffffffffffffffffffffffffffffffffff021916908373ffffffffffffffffffffffffffffffffffffffff16021790555050565b60005481565b600080fd5b600060ff82169050919050565b6102b58161029f565b81146102c057600080fd5b50565b6000813590506102d2816102ac565b92915050565b6000602082840312156102ee576102ed61029a565b5b60006102fc848285016102c3565b91505092915050565b600073ffffffffffffffffffffffffffffffffffffffff82169050919050565b600061033082610305565b9050919050565b61034081610325565b82525050565b600060208201905061035b6000830184610337565b92915050565b600081519050919050565b600082825260208201905092915050565b6000819050602082019050919050565b61039681610325565b82525050565b60006103a8838361038d565b60208301905092915050565b6000602082019050919050565b60006103cc82610361565b6103d6818561036c565b93506103e18361037d565b8060005b838110156104125781516103f9888261039c565b9750610404836103b4565b9250506001810190506103e5565b5085935050505092915050565b6000602082019050818103600083015261043981846103c1565b905092915050565b6000819050919050565b61045481610441565b82525050565b600060208201905061046f600083018461044b565b92915050565b7f4e487b7100000000000000000000000000000000000000000000000000000000600052604160045260246000fd5b7f4e487b7100000000000000000000000000000000000000000000000000000000600052603260045260246000fd5b7f4e487b7100000000000000000000000000000000000000000000000000000000600052601160045260246000fd5b600061050d82610441565b91507fffffffffffffffffffffffffffffffffffffffffffffffffffffffffffffffff8214156105405761053f6104d3565b5b60018201905091905056fea2646970667358221220a7a0d490d6ce9640a4d25118e381c2dc68a847757c5084bf1cbdecb863bd2cd064736f6c634300080b0033",
  "immutableReferences": {},
  "source": "// SPDX-License-Identifier: UNLICENSED\npragma solidity ^0.8.0;\n\ncontract Faucet {\n    uint public numberOfFunders;\n    mapping(uint => address) private funders;\n\n    receive() external payable {}\n\n    function addFunds() external payable {\n        uint index = numberOfFunders++;\n        funders[index] = msg.sender;\n    }\n\n    function getAllFunders() external view returns (address[] memory) {\n        address[] memory _funders = new address[](numberOfFunders);\n\n        for (uint i = 0; i < numberOfFunders; i++) {\n            _funders[i] = funders[i];\n        }\n\n        return _funders;\n    }\n\n    function getFunderAtIndex(uint8 index) external view returns (address) {\n        return funders[index];\n    }\n}\n",
  "sourcePath": "/Users/ajackti/Downloads/Code/Truffle/faucet/contracts/FaucetContract.sol",
  "compiler": {
    "name": "solc",
    "version": "0.8.11+commit.d7f03943.Emscripten.clang"
  },
  "schemaVersion": "3.4.4",
  "updatedAt": "2022-02-17T16:24:37.165Z",
  "networkType": "ethereum",
  "devdoc": {
    "kind": "dev",
    "methods": {},
    "version": 1
  },
  "userdoc": {
    "kind": "user",
    "methods": {},
    "version": 1
  }
}