{
  "contractName": "Faucet",
  "abi": [
    {
      "inputs": [],
      "name": "numberOfFunders",
      "outputs": [
        {
          "internalType": "uint256",
          "name": "",
          "type": "uint256"
        }
      ],
      "stateMutability": "view",
      "type": "function",
      "constant": true
    },
    {
      "stateMutability": "payable",
      "type": "receive",
      "payable": true
    },
    {
      "inputs": [],
      "name": "addFunds",
      "outputs": [],
      "stateMutability": "payable",
      "type": "function",
      "payable": true
    },
    {
      "inputs": [
        {
          "internalType": "uint256",
          "name": "withdrawAmount",
          "type": "uint256"
        }
      ],
      "name": "withdraw",
      "outputs": [],
      "stateMutability": "nonpayable",
      "type": "function"
    },
    {
      "inputs": [],
      "name": "getAllFunders",
      "outputs": [
        {
          "internalType": "address[]",
          "name": "",
          "type": "address[]"
        }
      ],
      "stateMutability": "view",
      "type": "function",
      "constant": true
    },
    {
      "inputs": [
        {
          "internalType": "uint8",
          "name": "index",
          "type": "uint8"
        }
      ],
      "name": "getFunderAtIndex",
      "outputs": [
        {
          "internalType": "address",
          "name": "",
          "type": "address"
        }
      ],
      "stateMutability": "view",
      "type": "function",
      "constant": true
    }
  ],
  "bytecode": "0x608060405234801561001057600080fd5b506107f7806100206000396000f3fe60806040526004361061004e5760003560e01c80630a93cf331461005a5780632e1a7d4d146100975780636fbbb55d146100c0578063a26759cb146100eb578063dc79a7fc146100f557610055565b3661005557005b600080fd5b34801561006657600080fd5b50610081600480360381019061007c9190610452565b610120565b60405161008e91906104c0565b60405180910390f35b3480156100a357600080fd5b506100be60048036038101906100b99190610511565b610160565b005b3480156100cc57600080fd5b506100d56101f7565b6040516100e291906105fc565b60405180910390f35b6100f36102f0565b005b34801561010157600080fd5b5061010a61040e565b604051610117919061062d565b60405180910390f35b6000600260008360ff16815260200190815260200160002060009054906101000a900473ffffffffffffffffffffffffffffffffffffffff169050919050565b8067016345785d8a00008111156101ac576040517f08c379a00000000000000000000000000000000000000000000000000000000081526004016101a3906106cb565b60405180910390fd5b3373ffffffffffffffffffffffffffffffffffffffff166108fc839081150290604051600060405180830381858888f193505050501580156101f2573d6000803e3d6000fd5b505050565b60606000805467ffffffffffffffff811115610216576102156106eb565b5b6040519080825280602002602001820160405280156102445781602001602082028036833780820191505090505b50905060005b6000548110156102e8576002600082815260200190815260200160002060009054906101000a900473ffffffffffffffffffffffffffffffffffffffff1682828151811061029b5761029a61071a565b5b602002602001019073ffffffffffffffffffffffffffffffffffffffff16908173ffffffffffffffffffffffffffffffffffffffff168152505080806102e090610778565b91505061024a565b508091505090565b6000339050600160008273ffffffffffffffffffffffffffffffffffffffff1673ffffffffffffffffffffffffffffffffffffffff16815260200190815260200160002060009054906101000a900460ff1661040b57600080600081548092919061035a90610778565b91905055905060018060008473ffffffffffffffffffffffffffffffffffffffff1673ffffffffffffffffffffffffffffffffffffffff16815260200190815260200160002060006101000a81548160ff021916908315150217905550816002600083815260200190815260200160002060006101000a81548173ffffffffffffffffffffffffffffffffffffffff021916908373ffffffffffffffffffffffffffffffffffffffff160217905550505b50565b60005481565b600080fd5b600060ff82169050919050565b61042f81610419565b811461043a57600080fd5b50565b60008135905061044c81610426565b92915050565b60006020828403121561046857610467610414565b5b60006104768482850161043d565b91505092915050565b600073ffffffffffffffffffffffffffffffffffffffff82169050919050565b60006104aa8261047f565b9050919050565b6104ba8161049f565b82525050565b60006020820190506104d560008301846104b1565b92915050565b6000819050919050565b6104ee816104db565b81146104f957600080fd5b50565b60008135905061050b816104e5565b92915050565b60006020828403121561052757610526610414565b5b6000610535848285016104fc565b91505092915050565b600081519050919050565b600082825260208201905092915050565b6000819050602082019050919050565b6105738161049f565b82525050565b6000610585838361056a565b60208301905092915050565b6000602082019050919050565b60006105a98261053e565b6105b38185610549565b93506105be8361055a565b8060005b838110156105ef5781516105d68882610579565b97506105e183610591565b9250506001810190506105c2565b5085935050505092915050565b60006020820190508181036000830152610616818461059e565b905092915050565b610627816104db565b82525050565b6000602082019050610642600083018461061e565b92915050565b600082825260208201905092915050565b7f43616e6e6f74207769746864726177206d6f7265207468616e20302e3120657460008201527f6865720000000000000000000000000000000000000000000000000000000000602082015250565b60006106b5602383610648565b91506106c082610659565b604082019050919050565b600060208201905081810360008301526106e4816106a8565b9050919050565b7f4e487b7100000000000000000000000000000000000000000000000000000000600052604160045260246000fd5b7f4e487b7100000000000000000000000000000000000000000000000000000000600052603260045260246000fd5b7f4e487b7100000000000000000000000000000000000000000000000000000000600052601160045260246000fd5b6000610783826104db565b91507fffffffffffffffffffffffffffffffffffffffffffffffffffffffffffffffff8214156107b6576107b5610749565b5b60018201905091905056fea2646970667358221220d750bbdde34c5d9f9c759d9ba9e4a959d395448adbffec449367a602334f89a864736f6c634300080b0033",
  "immutableReferences": {},
  "source": "// SPDX-License-Identifier: UNLICENSED\npragma solidity ^0.8.0;\n\ncontract Faucet {\n    uint public numberOfFunders;\n    mapping(address => bool) private funders;\n    mapping(uint => address) private lutFunders;\n\n    modifier limitWithdraw(uint withdrawAmount) {\n        require(withdrawAmount <= 100000000000000000, \"Cannot withdraw more than 0.1 ether\");\n        _;\n    }\n\n    receive() external payable {}\n\n    function addFunds() external payable {\n        address funder = msg.sender;\n\n        if (!funders[funder]) {\n            uint index = numberOfFunders++;\n            funders[funder] = true;\n            lutFunders[index] = funder;\n        }\n    }\n\n    function withdraw(uint withdrawAmount) external limitWithdraw(withdrawAmount) {\n        payable(msg.sender).transfer(withdrawAmount);\n    }\n\n    function getAllFunders() external view returns (address[] memory) {\n        address[] memory _funders = new address[](numberOfFunders);\n\n        for (uint i = 0; i < numberOfFunders; i++) {\n            _funders[i] = lutFunders[i];\n        }\n\n        return _funders;\n    }\n\n    function getFunderAtIndex(uint8 index) external view returns (address) {\n        return lutFunders[index];\n    }\n}\n",
  "sourcePath": "/Users/ajackti/Downloads/Code/Truffle/faucet/contracts/FaucetContract.sol",
  "compiler": {
    "name": "solc",
    "version": "0.8.11+commit.d7f03943.Emscripten.clang"
  },
  "schemaVersion": "3.4.4",
  "updatedAt": "2022-02-20T12:43:03.349Z",
  "networkType": "ethereum",
  "devdoc": {
    "kind": "dev",
    "methods": {},
    "version": 1
  },
  "userdoc": {
    "kind": "user",
    "methods": {},
    "version": 1
  }
}